:020000040800F2
:10000000081F002091410008B93B0008BB3B0008D5
:10001000BD3B0008BF3B0008C13B000800000000DA
:10002000000000000000000000000000C33B0008CA
:10003000C53B000800000000C73B0008C93B0008A2
:100040003D4200084142000845420008493C000882
:100050004D4200085142000855420008594200082C
:100060005D420008614200086542000869420008DC
:100070006D420008714200084B3D00081D3D00081C
:10008000B12A0008DF2A00088542000889420008DA
:100090008D420008914200089542000899420008EC
:1000A0009D420008A1420008A5420008A94200089C
:1000B000AD420008993C0008B5420008B94200086A
:1000C000BD420008C1420008C5420008C9420008FC
:1000D000CD420008D13B0008D5420008093C000889
:1000E000DD420008E1420008E54200082DE9F04F3A
:1000F00080460FF21860A5B017461D46D0E90023D0
:10010000CDE91223002004910D900DF1500A6FF0FB
:10011000004900E0E7190020ADF8020012AB4FF0F3
:10012000FF3239460DF1020001F088F80446012C37
:1001300004DA3878441EA441E043C40FBDF802003D
:1001400025280CBFA4F1010BA346BBF1010F0EDB68
:100150003E4616F8011B0498C0470490002800F0A2
:10016000CF820D98401CBBF1010B0D90F1D1BDF871
:100170000200252807D100200790089009900A90D6
:100180000B900C9005E00028C4D10D98BAE240F025
:10019000010017F8011F2029F9D023290DD02B29A0
:1001A00004D02D2906D030290AD00CE040F00200FE
:1001B00080B2EEE740F00400FAE740F00800F7E70D
:1001C00040F01000F4E72A290ED12968296051F87F
:1001D000042B2960002A0F9204D5514240F00400FC
:1001E0000F9180B27F1C11E000210F9109E00F995F
:1001F000494505D001EB810302EB430130390F91F2
:100200007F1C3A78A2F130010A29F0D339782E29DF
:1002100003D04FF0FF310E911DE017F8011F2A297E
:1002200007D1296829607F1C51F8042B29600E92A0
:1002300011E000210E9109E00E99494505D001EB2E
:10024000810302EB430130390E917F1C3A78A2F111
:1002500030010A29F0D3ADF840000FF2B8403978E8
:1002600000F0FCFF08B117F8010B8DF842009DF873
:100270004200682802BF39786829622005D06C28BE
:1002800004BF38786C2803D171208DF842007F1CA0
:1002900014A8069017F8014BB4F125002AD01C3899
:1002A00000F0CC80001F022840F2C880133800F014
:1002B000EE80093800F0C280801E00F04F81401EA1
:1002C00000F02481401E022840F2B880001F00F098
:1002D0001D81401F00F08380401E00F0D880401E2A
:1002E0002DD0C01E0CD0801E00F0D180C01E00F0AA
:1002F000CE8056E10120079025208DF850005BE16B
:100300009DF842006C282868286014D050F8046BCF
:10031000286005960E9C002C04D5304600F0BAFFEC
:10032000044606E022460021304600F0CFFF00B12F
:10033000841B089440E150F8042B28602AE12968C6
:1003400029603C2451F8040B29600021CDE9020109
:1003500014A80590DDE90201069E11B908B90E9AAC
:10036000B2B10206120FA0EB02123032631ED2B2FB
:100370003A2AA8BF2732000940EA017009099A55B4
:1003800008BF00281C4603D0059AA3199A42E8D357
:10039000A0190590C4F13C010E980891814209DA38
:1003A000401A0A904FF6EF71BDF840000840ADF8D2
:1003B000400001E1002840F1FF809DF8400000F07E
:1003C0001400102840F0F8800F98079A801A0A9AB3
:1003D000801A401A0128C0F2EF800A90ECE09DF8E4
:1003E000420062281AD0682806D06A280CD06C28EF
:1003F0001CD0712808D019E02868286050F8041B28
:1004000028600D980880D7E02868286050F8042BF1
:1004100028600D98C117C2E90001CDE02868286066
:1004200050F8041B28600D980870C5E02868286003
:1004300050F8041B28600D980860BDE02868C01DB6
:1004400020F007022A60D2E9000108322A60CDE9D3
:100450000201002903D5012007902D200CE0BDF8F2
:100460004000810703D5012007902B2004E0C0073E
:1004700004D50120079020208DF85000079914A87A
:1004800008180590214602A800F08CFB94E09DF826
:1004900042206C2A0DD0712A18BF6A2A09D1286817
:1004A000C01D20F007032B60D3E9000108332B6047
:1004B00005E02968296051F8040B29600021CDE985
:1004C0000201682A08BF80B207D0622A08BFC0B202
:1004D00003D0742A18BF7A2A02D10021CDE9020183
:1004E0009DF84000000730D5DDE90201002908BF72
:1004F00000282AD044F02000782826D130208DF81A
:1005000050008AF80140022007901EE09DF842004A
:10051000294600F003F9CDE90201002904DA079821
:10052000411C07912D210EE0BDF84000810704D544
:100530000798411C07912B2105E0C00705D50798B6
:10054000411C0791202100F80A10079914A80818E7
:100550000590214602A800F0A1FA2DE09DF8420086
:100560006C2809D0012007902868286050F8041BE7
:1005700028608DF850101FE02868286001AA50F804
:10058000041B2860ADF804100020ADF806004FF001
:10059000FF300E9002A9404600F0F7F800280BD576
:1005A000AEE00120079025208DF8500024B1079877
:1005B000411C079100F80A400F980799401A0A99C0
:1005C000401A0899401A0B99401A0999401A0C9937
:1005D000441A9DF84000400710D420208DF80000F8
:1005E000002609E0012300AA02A9404600F001FE0E
:1005F000002840F08580761CA642F3DB079E0DF1B3
:10060000500B0AE01BF8011B0498C0470490002817
:1006100076D00D98401C0D90761E002EF2D1302021
:100620008DF800004FF0000B0A9E09E0012300AA9C
:1006300002A9404600F0DDFD002861D10BF1010B5D
:10064000B345F3DB089EDDF814B00AE01BF8011B8C
:100650000498C0470490002852D00D98401C0D907B
:10066000761E002EF2D130208DF800004FF0000BE6
:100670000B9E09E0012300AA02A9404600F0B9FD43
:1006800000283DD10BF1010BB345F3DB0598089928
:10069000099E01EB000B09E01BF8011B0498C04701
:1006A000049068B30D98401C0D90761E002EF3D177
:1006B00030208DF800004FF0000B0C9E08E0012365
:1006C00000AA02A9404600F094FDC8B90BF1010B45
:1006D000B345F4DB9DF8400040077FF51CAD2020BA
:1006E0008DF80000002600E0761CA642BFF613AD90
:1006F000012300AA02A9404600F07BFD0028F3D0A8
:100700004FF0FF3025B0BDE8F08F00000000000082
:1007100000000000686A6C747A4C0000622826D0E1
:1007200068281DD06A2808D06C2827D0712804D0EA
:10073000742823D07A280CD020E00868C01D20F04F
:1007400007000860D0E90023083008601946104609
:1007500070470A680A6052F8040B0A60002170476B
:100760000A680A6052F8040B0A6000B20BE00A68DB
:100770000A6052F8040B0A6040B204E00A680A609A
:1007800052F8040B0A60C11770472DE9F44F0D466B
:1007900094B0D5F830B0BBF1000F804648BF6FF081
:1007A000004B00F0BFFD696B401801900FF68420EC
:1007B000D0E90023CDE9022395F83800400702D4A0
:1007C0000198412806D240200DF1100A01904FF007
:1007D000000909E000F0ACFD5FEA000AF7D14FF034
:1007E000FF3058E1ABEB040BBBF1010FC0F2CD8041
:1007F0001498018802AA0DF1010000F0F1FD002813
:10080000044600F1D5801498008810B9641E00F1E8
:10081000CF80A345C0F2B98068690199221891423E
:1008200080F0A180C5F834904042296A401AA96935
:10083000401A696A401AE969401AA96AA0EB0109DD
:1008400095F83800400710D420208DF800000026CD
:1008500009E0012300AA2946404600F0CAFC00280E
:1008600040F0A680761C4E45F3DB6E6957460BE0E0
:1008700017F8011BA868C047A860002800F09880FE
:10088000E86A401CE862761E002EF1D130208DF817
:10089000000000272E6A09E0012300AA29464046ED
:1008A00000F0A7FC002840F083807F1CB742F3DBF8
:1008B000AE69EF680AE017F8011BA868C047A86096
:1008C000002875D0E86A401CE862761E002EF2D13E
:1008D00030208DF8000000276E6A08E0012300AA8E
:1008E0002946404600F085FC002861D17F1CB742B4
:1008F000F4DBE868A969EE690F180AE017F8011B34
:10090000A868C047A860002852D0E86A401CE86286
:10091000761E002EF2D130208DF800000027AE6A3E
:1009200008E0012300AA2946404600F062FC0028A6
:100930003ED17F1CB742F4DB95F8380040070ED556
:1009400020208DF80000002607E0012300AA294698
:10095000404600F04EFC58BB761C4E45F5DB4FF090
:100960000009C5F81490224668690DF10101504450
:1009700000F044FD6869201868611498801C149088
:10098000801E008800287FF42DAF686B6969401ACB
:10099000296A401AA969401A696A401AE969401A25
:1009A000A96A471A95F83800400710D400240CE0D3
:1009B0004FF0FF3968E0A8682021C0470028A860F0
:1009C000F6D0E86A401CE862641CBC42F3DB6B6949
:1009D00052462946404600F00CFC0028E8D12C6A1B
:1009E000002609E0A8683021C0470028A860DFD0B1
:1009F000E86A401CE862761CA642F3DBAB69EA6851
:100A00002946404600F0F5FB0028D1D16C6A00264B
:100A100009E0A8683021C0470028A860C8D0E86A6B
:100A2000401CE862761CA642F3DBE868A969EB6922
:100A30000A182946404600F0DCFB0028B8D1AC6A11
:100A4000002609E0A8683021C0470028A860AFD080
:100A5000E86A401CE862761CA642F3DB95F8380091
:100A600040070DD5002409E0A8682021C0470028D0
:100A7000A8609DD0E86A401CE862641CBC42F3DBBD
:100A8000C5F81490C5F8349004A882451CBF5046A0
:100A900000F0F0FC484615B0BDE8F08F2DE9FA4EA5
:100AA00005460A462F696F2A08BF082405D041F081
:100AB0002000782814BF0A2410243C26D5E9000120
:100AC000642A18BF692A81468A4605D1002903DABB
:100AD000D9F100096AEB4A0ABAF1000F08BFB9F16F
:100AE000000F0CD1286B50B9082C36D195F838007E
:100AF000000732D530203B2687F83B002DE0E31776
:100B000048465146224600F0F5FCA4FB0023A9EB21
:100B100002023032D2B2A6F1010B3A2A5E4603DB62
:100B20009DF80030513B9A1881465FEA010A0BF8A4
:100B3000072008BFB9F1000F03D0E868F119884217
:100B4000DDD3082C09D195F83800000705D5F05DF4
:100B5000302802D0761E3020F055C6F13C00A86146
:100B6000F119E960296B884208DA081A28624FF601
:100B7000EF71288F08402887BDE8F38E00290ED535
:100B800095F8381001F01401102908D1696B6A69D1
:100B9000891A2A6A891A081A0128A8BF2862BDE89A
:100BA000F38E00002DE9F24F04468EB0D4E9000127
:100BB000CDE9020104AF9DF8380040F0200BBBF1F5
:100BC000610F0AD0206B002848BF062004D408BF5C
:100BD000BBF1670F01D1012020636168C1F30A50A6
:100BE00040F2FF7290421CD1080304BF2068002825
:100BF00009D10320A0619DF8380061381A2836D346
:100C00000FF2286108E00320A0619DF838006138E8
:100C10001A2829D30FF20C61E068032200F0EEFBE2
:100C2000BEE1012816DA204600F0DBFC012811DBCA
:100C300000250020BBF1610F20D1E168302201F8CE
:100C4000012B4A1CE2609DF83820612A0CBF7822F3
:100C500058220FE0626840F2FE3161F31E52451ADD
:100C600062604FF0FF30E5E70FF2B451D4E70FF2C6
:100C7000B851D1E70A706169891C616110B9002619
:100C8000002584E1BBF1610F40F09780206B0028C4
:100C90004CBF2126461CDDE90201D4E900AB00224D
:100CA000002300F0BFFC36B23ABF8BF00040CDE924
:100CB00002A0CDE902AB06F101082D1F8DF810202E
:100CC0000DF1110700E0C71DB8F1010F33DBDDE9BD
:100CD00002010022002300F0BDFC2CD21C2102A83E
:100CE00000F0D0FCDDE9020100F052FDA8F1070898
:100CF000B8F1010F814609DB00F076FD02460B4694
:100D0000DDE9020100F088FDCDE90201F81D0721AF
:100D100005E009F00F0200F8012D4FEA2919B9F199
:100D2000010F01DB491EF4D5491E5CBF002200F80B
:100D3000012DF9D5C7E70DF11100391AB142B8BF3D
:100D40000E4636B230000DF111072FD4884206DA74
:100D500004A9411849780829A8BF0F2100DA002109
:100D600004AA821800E0761E12F80139401E8B4258
:100D7000F9D00F2904D104A941184A78521C4A70AD
:100D8000002802D504AF761C2D1D36B2701E0DD47E
:100D9000C1190A783032D2B23A2A03DB9DF83830D2
:100DA0003A3B9A18401E01F80129F2D5206B002821
:100DB00040F1ED80701E2063E9E0DDE902010022D0
:100DC000002300F02FFC3CBF81F00041CDE902017F
:100DD0002DB247F2975068434B49DFF8309190FBB2
:100DE000F1F52DB2C5F1070ABAF1010F90461CDBEF
:100DF000DDE902675FEACA7007D542464B463046D6
:100E0000394600F0C9FD06460F464FEA6A0A4046D9
:100E1000494642464B4600F0BFFDBAF1000F8046FE
:100E20008946E7D1CDE9026724E0CAF1000A00262D
:100E3000374F14E05FEACA7007D542464B4630464A
:100E4000394600F0A9FD06460F464FEA6A0A4046B9
:100E5000494642464B4600F09FFD80468946BAF11E
:100E6000000FE7D1DDE9020132463B4600F066FEA5
:100E7000CDE90201BBF1660F216BDFF898900CBF42
:100E800005F10A0006204618142EA8BF13263020AC
:100E90008DF810000DF11107012E3DDBDDE9020197
:100EA00000F08CFC07F1080104220A23B0FBF3F3E5
:100EB00003EB8307A0EB4700303001F8010D0A2057
:100EC000B3FBF0F000EB8007A3EB47033033521E77
:100ED00001F8013DE9D1083E012E01F10807DBDBF5
:100EE000DDE9020100F06AFC00F088FC02460B46D6
:100EF000DDE9020100F090FC00224B4600F04CFDC1
:100F0000CDE90201CAE700BFA0860100000024402D
:100F10000000F03F84D797410DF11100381A0DF110
:100F2000110702E0401E6D1E7F1C39783029F9D070
:100F3000BBF1660F02D12DB2691C04E0BBF1650F55
:100F40000CBF01210021226B8E1836B2B042B8BF0F
:100F5000064636B231001AD4814204DAC85D35281B
:100F6000A8BF392000DA3020CA19521E00E0761ED0
:100F700012F80139491E8342F9D0392802D1C85DDF
:100F8000401CC855002902D57F1E761C6D1C2DB251
:100F90009DF83810009533B23A46204600F003F829
:100FA0000FB0BDE8F08F2DE9F04786B006468A46BF
:100FB00090461D4600F003FF406A376B90F80090A2
:100FC000012D02DA01250FF268284AF02000BDF950
:100FD0003840662808BF641C12D0672876D114F107
:100FE000040F79DBBC4277DA96F83800641C0007FE
:100FF00002D4BD42B8BF2F4624B23F1B48BF0027D2
:1010000024B2F068B169012C21DA4A1C30230B5458
:10101000012F03DA96F83810090702D502F800907C
:10102000521CE742B8BF7C4224B26142E719AF428A
:10103000B261B8BF3D4671622DB2F5612A46B3690F
:101040004146181800F0DAF9781BB062BAE00818C7
:10105000A54216DA2A46414600F0D0F9B16969186E
:10106000601BB161012F706203DA96F83800000747
:1010700005D5F06801F80090F069401CF061B76296
:10108000A0E02246414600F0B9F9B06920182D1BB6
:10109000012F03DA96F83810090703D5F16800F834
:1010A0000190401CB0612DB2AF42B8BF3D46F06820
:1010B000B3692DB22A4604EB0801181800F09EF916
:1010C000B0692818B061781B70627BE0BAF1610FDB
:1010D00014D14FF0700A16E0BD4204DA96F83810C9
:1010E000090758BF2F467F1E48BF0027BAF1670F78
:1010F00014BF4FF0450A4FF0650A04E0BAF1410F02
:1011000008BF4FF0500AB169F06818F8013B0B5462
:101110004A1C012F05DA96F83810090758BFB2614A
:1011200015D502F80090531C012FB3610FDB6D1E23
:101130002DB2AF42B8BF3D462DB22A4641461818DF
:1011400000F05CF9B0692818B061781B7062F06833
:10115000B16901EB0008200008F801AB03D42B2093
:1011600008F8010B03E02D2108F8011B644200255B
:1011700002AF08E00A2200A800F03AFE019807F842
:10118000010B6D1C009C21B20129F3DA022D06DA55
:101190004AF02000652804BF302008F8010B4DB943
:1011A000302008F8010B07E06D1E02A8285C3030E3
:1011B00008F8010B012DF7DAF068B1690818A8EBFF
:1011C0000000F06196F8380000F0140010280DD1EE
:1011D0007069B1690818716A0818F1690818B16A6C
:1011E0000818716B8842BCBF081A306206B0BDE8AF
:1011F000F087F8B504460D4616461F46002004E069
:10120000E86A401CE8627F1E002047B116F8011B07
:10121000A868A047A8600028F2D14FF0FF30F2BDC7
:101220006E616E004E414E00696E6600494E46008A
:10123000300000000000000000000000F8B5044687
:101240000D4616461F4600F0DBFD3B46324629465A
:10125000204601B0BDE8F04000F0E9BD0278C9B217
:101260008A421AB11CBF10F8012FF9E718BF0020FD
:10127000704750F8041B61B150F8042BD30744BFEA
:10128000A9F101039A180023091F42F8043BFAD17F
:10129000EFE7704700F10103810704D010F8011B4C
:1012A00089B18107FAD10268B2F10131914311F09D
:1012B000803F04BF50F8042FF6E710F8011B11B16E
:1012C00010F8011BFBE7C01A70470000C9B2830782
:1012D00006D0521E22D310F8013B9942F7D11FE0ED
:1012E000083A13D302F1040241EA012141EA014123
:1012F00050F8043B121F21BF4B40A3F1013C2CEAE4
:10130000030C1CF0803FF3D0C9B2001F083210F864
:10131000013B521E28BF91EA030FF8D818BF0120E5
:10132000401E704780B500F06BFD012002BD00003B
:1013300070B5054605F10F00C408E400C046C0467C
:10134000A54232D2082C04D2082402E0083000F072
:1013500091F82248026811000CD1011D0A6802B3FD
:101360001368A34238BF111DF8D310E01D68A542D1
:101370000DD2191D0B68002BF8D11268011D00E079
:10138000191D0B6893420CD01D68A542F8D361B1BA
:101390000D682A68A2F10803A3420AD26A680A60AB
:1013A0000FE000F067FD0028D0D1C046C046002005
:1013B00070BD63190B60121B6E685E600B681A606B
:1013C0002C60096800291DBF4A68002A091D0021F8
:1013D0000160C046C04605F1080070BDE80E00205F
:1013E00070B504460D46164600F00AFD3246294601
:1013F0002046BDE8704000F00DBD000062B38B07D1
:1014000008D0521E11F8013B00F8013B00F0248087
:101410008B07F6D1830740F0208000BF103A07D336
:1014200030B4B1E83810103AA0E83810F9D230BC26
:10143000530724BFB1E80810A0E8081044BF51F8D2
:10144000043B40F8043BD20724BF31F8022B20F8BC
:10145000022B44BF0B7803707047083A07D3B1E8FA
:101460000810083A40F8043B40F804CBF7D2530781
:10147000E4E7000000B9704738B5A0F1080420681F
:10148000082833D310F0070F30D1C046C0461848A3
:10149000416809B18C4203D26160446017E019468B
:1014A0004B680BB1A342FAD30B685D18AC421BD357
:1014B000A54204D12268D2180A600C4607E04A68A7
:1014C0001AB123681B199A420ED362604C6061689E
:1014D00051B1226813198B4206D1002303600868BA
:1014E0008018206048686060C046C04631BD00007A
:1014F000E80E00201B4213D1094236D12AB184469E
:10150000B0FBF2F002FB10C2704700F0C9BCFCD384
:101510000022002370470B000200002100207047CA
:10152000904271EB030CF6D370B5B1FA81F4B3FAC3
:1015300083F52C1BA340C4F1200532FA05F6334392
:10154000A2405FF00046E64002E05B085FEA32023C
:10155000841A71EB030524BF204629467641F4D353
:1015600002000B003000002170BD012ACFD970B5F8
:10157000140C20D0B1FA81F4B2FA82F5C4F120043F
:101580006419B4F12006D6D3B2405FF00044F440B1
:10159000002502E052085FEA3303C61A71EB020E1F
:1015A00024BF3046714664416D41F3D302000B0005
:1015B0002000290070BD0C46B1FBF2F102FB114581
:1015C0002D0445EA1045B5FBF2F402FB145580B238
:1015D00040EA0545B5FBF2F002FB105240EA044038
:1015E00070BD30B4436803F0004201211B031B0BA4
:1015F000436004BF0368002B08D10DE00368DD0FD2
:1016000045EA440444605B000360491E4468E30209
:10161000F4D523031B0B436043681A43426008461A
:1016200030BC70474FF4001C1CEB410F94BF1CEB07
:10163000430F09E041EA030C50EA4C0C52EA0C0C4F
:1016400003D2994208BF9042704714BF8B42824236
:10165000704700004FF4001C1CEB410F94BF1CEBC3
:10166000430F09E041EA030C50EA4C0C52EA0C0C1F
:1016700003D28B4208BF8242704714BF9942904206
:101680007047000070B504460D466068C0F30A500C
:1016900040F2FF71884207D16068000304BF2068F0
:1016A000002817D0022070BD20B92046FFF799FF0F
:1016B000012867DA012D0FDB40F2FF71091A8D4214
:1016C0000AD36068002847BF00202F4900202F4917
:1016D000C4E90001012070BD4142A942616806DAF7
:1016E0006FF31E51401941EA0050606041E0401E16
:1016F00063684519012205F1350062F31F5335284F
:1017000001F00041636003D361600020206070BD80
:10171000002215F11F0F04DA226823600020203513
:101720006060684213D0521E25689241C0F12003C8
:10173000D2439D4045EAD27225686668C54006FAE4
:1017400003F32B432360636823FA00F06060606852
:101750000843B2F1004F606003D80DD12078C00774
:101760000AD52068401C2060206828B96068401CA9
:1017700060604FF0FF3070BD6068884204BF206831
:101780000028F6D1002070BD0000F0FF0000F07FBF
:10179000F446400D40EAC120490006D200F014F89A
:1017A000004248BF6FF00040604700F00DF84FF076
:1017B000004188428CBF084640426047400D40EAE5
:1017C000C120490080F00D8040F00040490DA1F596
:1017D0008061491C05D4D1F11F0154BFC840C01716
:1017E00070474FF000007047010040F10980F44657
:1017F000404200F005F851F000416047010000BF91
:1018000009D0B0FA80F18840C91CC1F5846109058E
:1018100001EBD0214005704770B44FF0004591EACC
:10182000030F44BF6B4000F03DBB00BF841A71EB57
:10183000030604D26E40001BB141121973414FF4EC
:10184000001C1CEB410F34BF7CEB430684E00C0D05
:10185000A4EB1356362E7DDC012E43DC45EAC32370
:1018600043EA525312BFD20292025B08240545EAB2
:10187000C12141EA5051D2EBC020994125D407D172
:10188000B0FA80F610FA06F164D00020203608E0A5
:10189000B1FA81F6B140C6F1200220FA02F21143FA
:1018A000B0404FEAF474B4EB465434F001064FEA0A
:1018B00074040AD8D6F50016760D04F00044F04002
:1018C00061FA06F25040F1404840C00A40EA4150F7
:1018D00021F0004128BF5FEA500550F1000044EBC1
:1018E000D12137E045EAC323DB0A45EAC121C90A11
:1018F000B6F120050EDD42EA0242120CC5F12006C7
:1019000003FA06F6EB4042EA06056D42984161F1A2
:1019100000010DE062FA06F5F240554063FA06FC5C
:1019200082EA0C02F3405A406D42904161EB0301A0
:1019300011F4801F05D1641E620502D06D00404184
:10194000494121F48011430875F1004350F1000032
:1019500041EB045170BC70471CEB410F15D223F0D2
:10196000004352EA43060BD04FEA4C0CBCEB410F4C
:1019700004D80C0D661E342EB7DDEBE7801A9941B2
:1019800050EA410608BF0021E4E708BF1CEB430F03
:1019900028BF6FF00001DDE7B0B581EA030C0CF061
:1019A000004C40F2FF7515EA11541DBF15EA13579C
:1019B000AC42AF4239E0E41923EA455343F48013C3
:1019C000C90241F0004141EA505EC7021100A7FB85
:1019D000020200284FF00000EEFB01204FF0000152
:1019E000E3FB072118BF42F00102401800214941E2
:1019F000E3FB0E01A4F580640F0302D252004041C4
:101A0000494154F101046CDD470872F1004250F184
:101A1000000051EB0451A1F580115CBF41EA0C01BB
:101A2000B0BD4CEA05510020B0BD05EA1357AC42E9
:101A300014BFAF4241E050EA410E1CBF52EA430ED0
:101A400002E061460020B0BD24423C441BD15FEA65
:101A5000070EF6D0090302BF01460020AEF1140EB6
:101A6000B1FA81F7AEEB070401FA07FE0C37C7F1B4
:101A7000200100FA07F7C8404EEA000E23EA45535A
:101A800043F48013A2E733F00043B3FA83F704BFB3
:101A9000B2FA82FE77440B3FE41BB7F1200E2FBF52
:101AA00002FA0EF3BB40C7F1200E22FA0EFE38BF39
:101AB00043EA0E03BA40641C82E750EA410E14BFA9
:101AC00052EA430E6FF000014FF4001717EB430F7B
:101AD0008ABF194617EB410FB5E74CEA05510020C4
:101AE000B0BDD4F10104B4F120070FDAC4F120072E
:101AF000520828BF42F0010210FA07F501FA07F771
:101B0000E1BF2A43E0403843E1400FE0352C98DC48
:101B1000C7F1200452EA400220FA07F218BF42F04F
:101B2000010231FA07F0A1400A43002172F100429C
:101B300050F1000051EB0C01B0BD0000F0B540F2D7
:101B4000FF7581EA030C0CF0004C15EA11541DBF1F
:101B500015EA1357AC42AF42E5E0BC41C1F31301B3
:101B6000C3F31303801A994143F4801304D2641E13
:101B70004000494180185941C90241EA5051B1FB26
:101B8000F3F603FB1611A2FB0675D7EBC020A941A3
:101B900002D2761E80185941C90241EA5051B1FB68
:101BA000F3FE03FB1E11A2FB0E75D7EBC020A9416B
:101BB00003D2AEF1010E80185941890241EA9051D9
:101BC000760546EA8E2EB1FBF3F603FB1611A2FB57
:101BD0000675D7EB8020A94102D2761E80185941A4
:101BE000C90241EA50514EEA060EB1FBF3F603FB7F
:101BF0001611A2FB0675D7EBC020A94102D2761EB2
:101C000080185941C90241EA5051B1FBF3F703FB77
:101C10001711A2FB0735D3EBC020A94167F10007DC
:101C20000CBF004247F0010766F3D5274FEA1E318B
:101C3000B80814F5806412DDBD0775F1004250EB61
:101C40000E5051EB045111F5801F5CBF41EA0C01AD
:101C5000F0BD4CF07F6141F0E0410020F0BDBD07D8
:101C60006D0840EA0E5041F48011D4F10104B4F142
:101C700020060ADAC4F120060200E04001FA06F369
:101C8000E1401843B24015430EE0342C13DCC6F19A
:101C9000200445EA40056D0820FA06F2154321FAB2
:101CA00006F0A1400D43002175F1004250F1000003
:101CB00051EB0C01F0BD00205FEA0C01F0BDCFB983
:101CC00092185B41B3FA83F704BFB2FA82F6BF19E8
:101CD0000B3FB7F120062FBF02FA06F3BB40C7F156
:101CE000200622FA06F638BF3343BA401CB1E41985
:101CF000641E33E77F4231F00041B1FA81F404BF42
:101D0000B0FA80F6A4190B3CB4F120062FBF00FAFC
:101D100006F1A140C4F1200620FA06F638BF31438F
:101D2000A0403C1B1AE7AC421ABF05EA1357AF426A
:101D300012E050EA41061CBF52EA4306BFE750EAF0
:101D40004107304661461CBF41EA0551F0BD52EAE9
:101D5000430C08BFC143F0BD00204FF4001616EB42
:101D6000410F98BF16EB430F08BF16EB410F24BF7E
:101D7000C14305E016EB430F0CBF61464CEA055129
:101D8000F0BD000080B5134800F0F6F80FF24801EE
:101D9000016041608160C1600161416181610FF258
:101DA0003C0242628162C162016341630FF2300210
:101DB00082630FF23402C2630164416401BD10B555
:101DC000044800F0D9F80446206808B9FFF7DAFFA4
:101DD000204610BD00000020000000002E00000082
:101DE00066616C7365000000747275650000000028
:101DF00091FBF2F303FB1211C0E9003170470000C0
:101E000080B5DFF80C0000F0B7F8806902BD000073
:101E10009000002030B430B90FF24800D0E90045FE
:101E2000C2E900451BE00170012030BC704730B4AE
:101E300031B90FF23800D0E90045C3E900450EE0A2
:101E40001AB930BC6FF00100704708B10A780280FF
:101E50000978481E804130BCC043C00F7047002045
:101E600030BC7047000000000000000000000000CF
:101E7000000000000749086808B1002070470648C4
:101E8000C008C00008600549C908C900091A0160F6
:101E9000704700BFF00E00200F1F0020082F002009
:101EA00070470000841A71EB030603D2001BB14196
:101EB000121973414FF4001C1CEB410F34BF7CEB33
:101EC000430443E00C0DA4EB1356352E50DC45EAD9
:101ED000C323DB0A45EAC121C912B6F120050DDD95
:101EE00063FA05F6EB4086EA0305124218BF45F097
:101EF0000105C01851F100010CD213E062FA06F599
:101F0000F2405540F3415A40B340F3405A408018E4
:101F1000594107D349085FEA30005FEA350528BF19
:101F200045F0010501F58011420875F1004250F1BC
:101F3000000041EB045170BC4FF4001C1CEB410F3E
:101F400038BF70470020090D090570471CEB410F91
:101F500010D252EA43060BD0BCEB410F05D80C0D52
:101F6000AB43661E342EB5DD02E0AB438018594109
:101F700070BC704770BC70477047000010B502001D
:101F800000200023002A01D0002905D1DFF8CC0869
:101F900000F0BCFC002008E0022302E09C5C20185A
:101FA0005B1C4C1EA342F9D3C0B210BD01B481B07A
:101FB00000A801A94A78027009784170BDF80000B4
:101FC00002B0704710B50400002C06D1DFF890086D
:101FD00000F09CFC5FF0FF3009E0082100222000A7
:101FE00000F0A6FCFF202070FF206070002010BDD4
:101FF000DFF87008D0F87507401CDFF86818C1F8E2
:1020000075077047DFF85C08D0F87507704710B5A2
:1020100084B00024002806D1DFF84C0800F076FCDC
:102020005FF0FF3022E0082200AC01002000FFF743
:10203000E5F99DF80400401C8DF804000520FFF729
:10204000B5FFADF80200092100A8FFF797FF8DF852
:102050000800092100A800F052FD0400002C04D55E
:102060002100DFF8080800F051FC200004B010BD8A
:1020700070B504000D00002C06D1DFF8F40700F065
:1020800045FC5FF0FF3018E040F2BE310022DFF87F
:10209000E467300000F04CFCDFF8DC672A00210028
:1020A0003000FFF7ABF9DFF8BC07A0F8315B012087
:1020B000DFF8B01781F87A07002070BD70B584B0E2
:1020C00005000C000026002D06D1DFF8B00700F057
:1020D0001DFC5FF0FF3022E000A8FFF773FF122025
:1020E0008DF8040068798DF805000620FFF75EFF83
:1020F000ADF802008DF808400A2100A8FFF73EFF66
:102100008DF809000A2100A800F0F9FC0600002E55
:1021100004D53100DFF8680700F0F8FB300004B0A8
:1021200070BDFEB506000C0015000027002C06D17E
:10213000DFF8500700F0EAFB5FF0FF3039E000A85D
:10214000FFF740FF05208DF80400DFF81807D0F8EE
:1021500071078DF80500DFF80C07D0F87107401CF7
:10216000DFF80017C1F871078DF808600820FFF745
:102170001DFFADF802000DF109062A002100300014
:10218000FFF73CF90C2100A8FFF7F8FE8DF80B00D3
:102190000C2100A800F0B3FC0700002F04D5390083
:1021A000DFF8E40600F0B2FB0C2100A8FFF760FFA7
:1021B0003800FEBD30B587B004000025E4B2002C25
:1021C00008D0022C6AD036D3042C00F0CB80C0F0AB
:1021D0009880F8E000A8FFF7F5FE0B208DF80400CA
:1021E000DFF88006D0F871078DF80500DFF8740677
:1021F000D0F87107401CDFF86C16C1F87107052094
:10220000FFF7D4FEADF80200092100A8FFF7B6FEE3
:102210008DF80800092100A800F071FC0500002DD0
:1022200004D52900DFF8580600F070FB092100A84A
:10223000FFF71EFFCBE003A8FFF7C4FE09208DF8CF
:102240001000DFF82006D0F871078DF81100DFF8D4
:102250001406D0F87107401CDFF80816C1F87107A2
:102260008DF814400620FFF7A1FEADF80E000A21FC
:1022700003A8FFF783FE8DF815000A2103A800F0DC
:102280003EFC0500002D04D52900DFF8F40500F020
:102290003DFB0A2103A8FFF7EBFE98E003A8FFF738
:1022A00091FE09208DF81000DFF8B805D0F871070D
:1022B0008DF81100DFF8AC05D0F87107401CDFF88D
:1022C000A415C1F871078DF814400620FFF76EFEC3
:1022D000ADF80E000A2103A8FFF750FE8DF8150097
:1022E0000A2103A800F00BFC0500002D04D52900ED
:1022F000DFF88C0500F00AFB0A2103A8FFF7B8FEFF
:1023000065E000A8FFF75EFE13208DF80400DFF8FB
:102310005405D0F871078DF80500DFF84805D0F8AE
:102320007107401CDFF83C15C1F871070520FFF765
:102330003DFEADF80200092100A8FFF71FFE8DF851
:102340000800092100A800F0DAFB0500002D04D5E3
:102350002900DFF8340500F0D9FA092100A8FFF7B9
:1023600087FE34E000A8FFF72DFE15208DF804004D
:10237000DFF8F004D0F871078DF80500DFF8E40409
:10238000D0F87107401CDFF8DC14C1F87107052094
:10239000FFF70CFEADF80200092100A8FFF7EEFDE3
:1023A0008DF80800092100A800F0A9FB0500002D08
:1023B00004D52900DFF8D00400F0A8FA092100A80C
:1023C000FFF756FE03E0DFF8C40400F09FFA280090
:1023D00007B030BD2DE9F84F06000F0090460020F1
:1023E0005FF0000A00243D005FF00009002E04D0D9
:1023F000002F02D0B8F1000F06D1DFF8940400F0EE
:1024000085FA5FF0FF30B5E05FF0000A22E05FFA86
:102410008BFBBBF1FF0F2BD1DFF87804007800288D
:102420000BD1FF202870FF2068700220DFF86814AD
:1024300008800120DFF85C140870DFF8600480F881
:1024400000B0DFF85C040078401CDFF8541408701A
:102450001AF1010A5FFA8AFABAF1320F34DA5FFA36
:102460008AFA1AF806B0DFF834040078FF28CED0D4
:10247000DFF828040078FF2804D15FFA8BFBBBF15A
:10248000550FDAD0DFF80C0400780128D5D1DFF839
:102490000804008800F805B0DFF8FC030088401C41
:1024A000DFF8F4130880DFF8F00300880528C4DBA8
:1024B000A946B9F80200FFF779FD041DDFF8D8033B
:1024C0000088A4B2A042B8D1DFF8CC030088052868
:1024D0004FDBDFF8C4030088A4B2A04249D1DFF883
:1024E000B80301882800FFF749FDDFF8AC1309881D
:1024F000491911F8011CC0B2814219D1A4B22200BD
:1025000029003800FEF77AFFA8F800400020DFF825
:10251000841308700020DFF8801308800020DFF8A3
:10252000801308700020DFF874130870002021E089
:10253000DFF8700300F0EAF95FF0000A08E05FFAE4
:102540008AFA1AF80610C3A000F0E0F91AF1010A9D
:102550005FFA8AFABAF1320FF1DBBFA000F0D6F9C8
:10256000B9F80210DFF8400300F0D0F97FF0010065
:1025700000E00120BDE8F28F30B595B004000025E1
:10258000002C05D1C94800F0C1F95FF0FF3053E0DD
:1025900000A8FFF717FD02208DF8040060798DF880
:1025A00005000822C24902AC2000FEF727FF0822DE
:1025B000C04904AC2000FEF721FF0822BE4908AC48
:1025C0002000FEF71BFF0822BC4906AC2000FEF7E6
:1025D00015FF2022BA490AAC2000FEF70FFF0821A0
:1025E00000220DF14A04200000F0A2F99DF85100EC
:1025F0008DF851009DF8510050F002008DF8510007
:102600000020FFF7D3FCADF848004F20FFF7CEFCC9
:10261000ADF80200532100A8FFF7B0FC8DF852007E
:10262000532100A800F06BFA0500002D03D5290006
:102630008E4800F06BF9280015B030BD2DE9F0414F
:1026400006000C001D000027377A002E03D0002A58
:1026500001D0002D05D19B4800F058F95FF0FF3004
:102660003AE01B210022DFF86082404600F060F96A
:10267000FFB2012F04D0022F09D0052F08D02AE085
:1026800001207849087000220020286023E022E021
:10269000B4F10A0216F109018C4E3000FEF7AEFECD
:1026A000B4F10A006F49C1F86D070F206D496D4AFA
:1026B00092F8372B511881F8380B6A4890F8370B8D
:1026C000401C684981F8370B0320664908700022D6
:1026D00000202860FFE70020BDE8F08170B5ADF56F
:1026E000EF6D040000250020ADF8000000200190EF
:1026F000002500AA76497748FFF76CFE05003221D5
:102700000022744E300000F013F96DB2002D59D143
:10271000714800F0FBF8714800F0F8F8002506E079
:102720005048281841784BA000F0F0F86D1CBDF817
:1027300000008542F4DB48A000F0E8F8644D2879F9
:10274000012806D003281FD007282DD00D2832D00D
:1027500005E02800FFF710FF614800F0D7F8414876
:102760000078012806D053D3032844D039D3042855
:1027700045D04DE000203B4908701B210022524DFE
:10278000280000F0D5F843E001AB02AABDF8001024
:102790004F48FFF753FF002802D12800FFF737FC0E
:1027A000504800F0B3F8DAE72800FFF730FC4E4855
:1027B00000F0ACF8D3E72800FFF729FC4B4800F005
:1027C000A5F8CCE76DB215F1020FC8D1404D01213B
:1027D0002800FFF773FC464800F098F87FF00100EE
:1027E00035E000201F4908701B210022414D2800C0
:1027F00000F09EF80CE000201A49087008E0002064
:10280000184908701B2100223B4D280000F090F869
:10281000FFF7F8FB3949B0FBF1F201FB1200002889
:102820000DD1374800F072F8022236490420FFF734
:1028300078FC0A22344D21002800FEF7DFFDBDF8A8
:1028400000100022224C200000F072F801200DF54B
:10285000EF6D70BD257800000A000000103E0008F2
:10286000D83E000854010020043F000848400008FA
:10287000CC400008CD080020CF080020303F0008E1
:1028800028400008883F000864400008E440000831
:10289000483E0008FF0E0020FC0E0020000F002024
:1028A000010F0020A041000870410008783E000898
:1028B000AC410008B8410008C4410008D0410008FC
:1028C000D83F0008A83E00088B0C00200B05002014
:1028D000550100207C0E00204C410008804100087A
:1028E000DC410008E8410008F4410008004200080B
:1028F00080400008A60C0020C10C0020C027090061
:10290000FC400008F00C0020E60C00200EB400B5DE
:1029100082B003A90091024600AB0121034878442C
:102920000A30FDF7E3FB06BC5DF810FBE917000079
:1029300062F30F2262F31F42401810F0030308D025
:10294000C91A1FD3DB0748BF00F8012D28BF20F8A4
:10295000022D130030B414461546103928BF20E963
:102960003C00FAD8490728BF20E90C0048BF40F8CE
:10297000042D890028BF20F8022D48BF00F8012D42
:1029800030BC7047C91818BF00F8012DCB0728BF0D
:1029900000F8012D7047000000B58DB00121012025
:1029A00000F0E6F90021704800F0F3FA6E4800F0FC
:1029B0004DFA96206D4908806D4801906D4802904F
:1029C0001020039069480088049000200590802022
:1029D00006900020079000200890002009904FF4F6
:1029E00080500A9000200B9001A95F4800F0B3FAD4
:1029F0005FF0807000F0EAFA00215B4800F0C9FA4D
:102A000001220221584800F0D2FA00215A4800F071
:102A1000C0FA594800F01AFA9620544908805448E0
:102A2000019056480290002003905048008804907E
:102A3000002005908020069000200790002008903C
:102A4000002009904FF480500A9000200B9001A9BB
:102A5000494800F080FA5FF4801000F0B7FA0121D5
:102A6000454800F096FA01220221434800F09FFAFF
:102A700010208DF8000000208DF8010002208DF854
:102A8000020001208DF8030000A800F0D9FA1120FF
:102A90008DF8000000208DF8010002208DF8020062
:102AA00001208DF8030000A800F0CAFA0DB000BDA7
:102AB00080B500200021304800F06BFA5FF48010F0
:102AC00000F084FA2C4800F07EFAD0F196009620AF
:102AD0002B4908600121284800F05BFA01BD80B550
:102AE0005FF0007000F07AFA002807D05FF0807085
:102AF00000F06CFA00211C4800F04BFA01BD38B51B
:102B00000C00002802D15FF0FF3028E000250DE026
:102B1000295C184AA954022D07DB295CFF2904D13E
:102B20005521144AA9546D1C641C6D1CA542EFD399
:102B30001448046001210C4800F02BFA1248FFF7FA
:102B4000E5FE002505E00B48295C05A0FFF7DEFE49
:102B50006D1CA542F7D303A0FFF7D8FE200032BDBD
:102B6000257800000A00000080000240FA0E0020D4
:102B700004440040000D00206C0002407C0E002048
:102B8000700002408400024060410008DFF88002CB
:102B9000006850F00100DFF878120860DFF8740276
:102BA0000068DFF874120840DFF868120860DFF888
:102BB00060020068DFF864120840DFF85412086011
:102BC000DFF84C02006830F48020DFF8441208601F
:102BD000DFF84002006830F4FE00DFF838120860C9
:102BE0005FF41F00DFF8381208607047DFF820122A
:102BF000096831F48031DFF818221160DFF8101213
:102C0000096831F48021DFF808221160B0F5803FB7
:102C100003D0B0F5802F09D011E0DFF8F40100688F
:102C200050F48030DFF8E811086008E0DFF8E001D8
:102C3000006850F4A020DFF8D8110860FFE7704763
:102C40000022744A126832F47C120843024371482D
:102C500002607047C0B273490860704700216D4937
:102C600009688908890001436A480160704769481A
:102C7000006810F00C00704700216649096831F0C7
:102C8000F001014363480160704700216149096810
:102C900031F4E06101435F480160704700215D4904
:102CA000096831F4605151EAC0015A480160704727
:102CB00000210021002200215649096811F00C0171
:102CC000002904D0042905D0082906D021E057495D
:102CD000016020E0554901601DE04E49096811F48A
:102CE00070114C4A126812F48032890C891C002A37
:102CF00003D14F4A514301600AE0464A12689203E9
:102D000003D54B4A5143016002E0484A51430160F8
:102D100001E0464901603F49096811F0F0010909E5
:102D2000444A895C026832FA01F141603949096814
:102D300011F4E061090A3F4A895C426832FA01F104
:102D400081603449096811F46051C90A394A895CC3
:102D5000426832FA01F1C1602E49096811F440411C
:102D6000890B354A895CC268B2FBF1F10161704799
:102D7000C9B2002905D03149096808432F490860C4
:102D800005E02E49096831EA00002C4908607047C7
:102D9000C9B2002905D02A490968084328490860B2
:102DA00005E02749096831EA0000254908607047B5
:102DB000C9B2002905D023490968084321490860A0
:102DC00005E02049096831EA00001E4908607047A3
:102DD000002100220021C0B24109C9B2012902D15B
:102DE0000B490A6806E0022902D10F490A6801E08E
:102DF00015490A68C0B210F01F0132FA01F0C0078D
:102E000001D5012100E000210800C0B27047000098
:102E100000100240041002400000FFF8FFFFF6FE21
:102E200008100240600042422010024000127A0066
:102E300000093D003C0100204C010020141002401C
:102E4000181002401C1002402410024001684FF686
:102E5000FE721140016000210160002141600021EB
:102E600081600021C1606649884206D165480068DA
:102E700050F00F00634908606CE06349884206D156
:102E80006048006850F0F0005E49086062E05F4909
:102E9000884206D15B48006850F470605949086068
:102EA00058E05B49884206D15648006850F47040AB
:102EB000544908604EE05749884206D1514800689D
:102EC00050F470204F49086044E05349884206D1CD
:102ED0004C48006850F470004A4908603AE04F4995
:102EE000884206D14748006850F070604549086044
:102EF00030E04B49884206D14A48006850F00F0044
:102F00004849086026E04849884206D1454800689B
:102F100050F0F000434908601CE04449884206D163
:102F20004048006850F470603E49086012E0404933
:102F3000884206D13B48006850F470403949086027
:102F400008E03C49884205D13648006850F47020BA
:102F500034490860704710B4002202686FF30E1203
:102F60008B680C6A23430C6923434C6923438C69A7
:102F70002343CC6923434C6A23438C6A23431A437B
:102F80000260CA6842600A6882604968C16010BC19
:102F90007047C9B2002904D0016851F001010160F5
:102FA00004E001684FF6FE72114001607047D2B232
:102FB000002A03D002681143016003E0026832EA8C
:102FC000010101607047406880B27047C10002D5BE
:102FD0001449086001E00B49086070470021002196
:102FE000C10002D51449096801E014490968014289
:102FF00001D0012100E000210800C0B270470000AC
:1030000008000240040002401C0002403000024060
:1030100044000240580002406C0002408000024020
:1030200008040240040402401C0402403004024030
:1030300044040240580402400004024000000240E0
:10304000002100220F23C17800291DD014490968EE
:1030500011F4E061D1F5E061090AD1F10402CB403D
:103060004178914082781A40114309010D4A037852
:1030700099540121027812F01F0291400A4A007807
:10308000401142F8201009E00121027812F01F02DD
:103090009140064A0078401142F820107047000025
:1030A0000CED00E000E400E000E100E080E100E081
:1030B00080B501210420FFF76BFE01210120FFF7FD
:1030C00067FE01214FF48040FFF762FE4FF400706D
:1030D000ADF8000018208DF8030003208DF80200E1
:1030E00000A98A4800F01EF94FF48060ADF8000096
:1030F00004208DF8030000A9844800F013F9012191
:103100000420FFF745FE01215FF40030FFF750FE79
:1031100001210120FFF73CFE0420ADF8000018203B
:103120008DF8030003208DF8020000A9774800F015
:10313000F9F80820ADF8000004208DF8030000A97C
:10314000724800F0EFF801211020FFF721FE012165
:103150005FF48020FFF72CFE01210120FFF718FE0D
:1031600001216B4800F03EF94FF48060ADF800009B
:1031700018208DF8030003208DF8020000A965488F
:1031800000F0D0F84FF40060ADF8000004208DF896
:10319000030000A95F4800F0C5F801BD00B585B087
:1031A0005FF4E13000900020ADF804000020ADF89D
:1031B00006000020ADF808000020ADF80C000C203F
:1031C000ADF80A0000A9544800F050F90121524816
:1031D00000F0ACF9012280214F4800F0DEF9012215
:1031E00040214D4800F0D9F94FF4165000900020CE
:1031F000ADF804000020ADF806000020ADF808008E
:103200000020ADF80C000C20ADF80A0000A94348DE
:1032100000F02CF90121414800F088F901228021B9
:103220003E4800F0BAF9012240213C4800F0B5F9CF
:103230005FF4E13000900020ADF804000020ADF80C
:1032400006000020ADF808000020ADF80C000C20AE
:10325000ADF80A0000A9324800F008F9012240F256
:1032600025512F4800F070F901212D4800F05EF93A
:1032700040212B4800F0B2F905B000BD80B52520F3
:103280008DF8000000208DF8010000208DF802006C
:1032900001208DF8030000A8FFF7D2FE26208DF84C
:1032A000000000208DF8010001208DF802000120AF
:1032B0008DF8030000A8FFF7C3FE27208DF800005B
:1032C00000208DF8010001208DF8020001208DF80A
:1032D000030000A8FFF7B4FE01BD80B5FFF7E8FECC
:1032E000FFF75CFFFFF7CAFF01BD10B50400210026
:1032F000C9B289B2084800F05CF98021064800F0A4
:1033000060F90028F9D0200010BD0000000801403D
:10331000100014000010014000380140004400403B
:103320000048004070B4002200250023002600243D
:103330000025CA7812F00F02CB78DB0601D58B7816
:103340001A430B781B0621D00468002306E0CD78D1
:10335000482D02D101259D4005615B1C082B14D22C
:10336000012515FA03F60D883540B542F5D19E00CA
:103370000F25B540AC4312FA06F52C43CD78282D25
:10338000E5D101259D404561E7E704600B88FF2BEF
:1033900026DD4468002320E0012513F1080615FA14
:1033A00006F60D883540B54216D19E000F25B54072
:1033B000AC4312FA06F52C43CD78282D04D1012513
:1033C00013F10806B5404561CD78482D04D101259B
:1033D00013F10806B54005615B1C082BDCD3446083
:1033E00070BC704730B40022002400230024002861
:1033F00002D51C4A136801E01B4A1368C0F303445A
:1034000082B210F44015B5F5401F08D133F0706357
:10341000154C246834F07064134D2C6010E0C50224
:1034200006D5032515FA04F4A34353F0706307E0AF
:10343000440DE4B2240112FA04F4A34353F0706380
:10344000C9B2002905D0410DC9B2090112FA01F132
:103450000B43002802D50348036001E002480360E3
:1034600030BC70471C0001400400014070B586B0BC
:1034700004000D0000200020002100210026A88962
:1034800000282600208A4CF6FF710840E98808438E
:103490002082A0894EF6F3110840A9882A89114399
:1034A0006A8911430843A081A08A4FF6FF41084072
:1034B000A9890843A08200A8FFF7FAFB1A488642B0
:1034C00001D1039800E00298A189090406D51921C9
:1034D000484329684900B0FBF1F105E01921484350
:1034E00029688900B0FBF1F16420B1FBF0F0000124
:1034F0000209642303FB1211A289120408D5C90032
:1035000032316422B1FBF2F111F00701084307E008
:10351000090132316422B1FBF2F111F00F010843CD
:10352000208106B070BD000000380140C9B20029FA
:1035300004D0818951F40051818104E081894DF6E4
:10354000FF7211408181704730B4002300240024B1
:10355000002589B240F66A13994205000800C0B2FE
:103560004309DBB289B211F01F04012010FA04F400
:10357000012B01D10C3504E0022B01D1103500E004
:103580001435D2B2002A03D028682043286002E014
:103590002868A043286030BC7047D2B2002A03D00C
:1035A000828A1143818203E0828A32EA01018182A8
:1035B0007047C905C90D818070478088C005C00D5E
:1035C0007047002289B2B1F5007F0088084201D01F
:1035D000012200E000221000C0B2704789B28A05C3
:1035E00089B2C9430180704710B400220023002231
:1035F000002289B240F66A1291420A00D2B2520900
:10360000D2B289B211F01F03012414FA03F3012A84
:1036100002D18289134006E0022A02D1028A1340B5
:1036200001E0828A134089B20A0A92B2012111FA9A
:1036300002F200880240002B03D0002A01D00122B0
:1036400000E000221000C0B210BC7047002200222F
:1036500089B240F66A12914289B20A0A012111FA2E
:1036600002F292B2D14301807047000080B54E480B
:10367000006850F001004C4908604C4800684C4913
:1036800008404A490860484800684A490840464995
:1036900008604548006830F480204349086043488A
:1036A000006830F4FE00414908605FF41F004249A1
:1036B000086000F005F85FF000604049086001BD57
:1036C00080B500F001F801BD82B00020019000201B
:1036D00000903548006850F4803033490860324823
:1036E000006810F4003000900198401C0190009890
:1036F000002803D10198B0F5A06FF0D12A480068E6
:10370000800302D50120009001E000200090009885
:10371000012845D12A48006850F010002849086067
:103720002748006880088000254908602448006810
:1037300050F00100224908601C4800681B490860DD
:103740001A48006819490860184800681749086055
:103750001648006830F47C1014490860134800686B
:1037600050F4F810114908600F48006850F080705C
:103770000D4908600C4800688001FBD50B480068C3
:1037800080088000094908600848006850F002007D
:10379000064908600548006810F00C000828F9D1B7
:1037A00002B0704700000000001002400410024008
:1037B0000000FFF8FFFFF6FE0810024008ED00E0F1
:1037C0000020024040B2002808D50901484A40B212
:1037D00010F00F00801800F8041C03E00901454AAE
:1037E00040B28154704780B5B0F1807F01D3012091
:1037F00010E00002000A401E3F4908600F215FF000
:10380000FF30FFF7DFFF00203C49086007203C49FC
:103810000860002002BD80B5142004E00021394A70
:10382000C0B28154401EC0B20028F7D1142004E079
:10383000FF21344AC0B28154401CC0B22028F7DBBB
:103840003148006842F21071B0FBF1F0FFF7CBFF96
:1038500000202E49488001BD2C4880682C498842B0
:1038600003D300202949886004E028488068401C70
:10387000264988602548408842F21071884208D164
:1038800000202249488021484068401C1F49486068
:1038900004E01E484088401C1C494880142019E060
:1038A0001849C0B2411811F8011C002911D015495E
:1038B000C0B2411811F8011CFF290AD01149C0B249
:1038C000411811F8011C491E0E4AC0B2821802F8B4
:1038D000011C401EC0B20028E2D1704780B50948E3
:1038E0000078002803D100F015F806490870F6E7C3
:1038F00018ED00E000E400E014E000E018E000E073
:1039000010E000E0B00E002050010020DC0E00208E
:1039100081EE360080B5204800780E2816D0132896
:1039200034D0002000201D4908801C480088002851
:1039300018D100201A49088019480088B0F57A7F0C
:103940000ADA0E20144908700A2002BD14480088C3
:10395000401C13490880EFE710480088401C0F49BD
:103960000880E2E70F480088401C0E4908800E4896
:10397000FEF7B4FE00200A49088009480088322872
:10398000F0DA1320044908700A20DEE704480088B2
:10399000401C03490880F0E7FE0E0020F60E0020D0
:1039A000F40E0020F80E0020D00E00200022028825
:1039B000DFF8F030984212D0DFF8003198420ED094
:1039C000B0F1804F0BD0DFF8E030984207D0DFF83D
:1039D000DC30984203D0DFF8D830984204D14FF65B
:1039E0008F731A404B881A43DFF8C830984208D0CA
:1039F000DFF8C430984204D04FF6FF431A40CB881A
:103A00001A4302808A8882850A880285DFF894201A
:103A100090420FD0DFF8A42090420BD0DFF8A02016
:103A2000904207D0DFF89C20904203D0DFF8982026
:103A3000904201D1097A0186012181827047C9B281
:103A4000002904D0018851F00101018004E00188BF
:103A50004FF6FE72114001807047D2B2002A03D0A7
:103A600082891143818103E0828932EA01018181E7
:103A70007047002200220023028A0A40808911EA4E
:103A8000000392B2002A04D09BB2002B01D0012285
:103A900000E000221000C0B2704789B2C943018221
:103AA00070470000002C0140000400400008004066
:103AB000000C0040001000400014004000340140A1
:103AC000004001400044014000480140816807E097
:103AD00002681168536889185B18C3600832026075
:103AE000C2689142F4D04A1C8260087870472DE980
:103AF000FF4D00F10801009100270268520801EB18
:103B0000C2010191B8460021029103910168490860
:103B100000EBC101406800F0010501F10804400814
:103B200004EBC00631E000A8FFF7D0FF4FFA80FA9F
:103B30000AE000980168081800990290496808187E
:103B40000390009808300090029803998842F0D0C2
:103B5000401C029010F801BD47450CD1B44208BF8B
:103B600000F01DF8276805B14F44606800EB0708B6
:103B700008344745F2D0BAF1000F07F801BB0AD567
:103B80001AF1010AE8D14745CDD1B442CBD1304634
:103B900004B0BDE8F08DBAF1010AD5D5F3E70120F4
:103BA00000F000B880B5C046C046024A1100182097
:103BB000ABBEFBE7260002007047FEE7FEE7FEE72C
:103BC000FEE770477047704780B5FFF745FE01BDBF
:103BD00080B540F225511A48FFF706FD002812D0A3
:103BE00040F225511648FFF731FD1548FFF7E5FC77
:103BF000010089B21248FFF7DCFC80211048FFF772
:103C0000E0FC0028F9D001BD80B540F225510D48F7
:103C1000FFF7EAFC002812D040F225510948FFF7CF
:103C200015FD0848FFF7C9FC010089B20548FFF7F8
:103C3000C0FC80210348FFF7C4FC0028F9D001BD77
:103C4000003801400048004080B5012000F006F82F
:103C5000002802D0012000F013F801BD00210D4919
:103C6000098801400A4A128892B2024204D0C9B2BD
:103C7000002901D0012100E000210800C0B27047F6
:103C80000449098831EA00000249088070470000B1
:103C9000002800400428004080B501211E48FFF79D
:103CA000E8FE002805D001211B48FFF7F6FEFEF7CD
:103CB0009FF901BD30B585B041F61F4409250121AA
:103CC0000220FFF775F8ADF80840ADF80450002069
:103CD000ADF80A000020ADF8060001A90E48FFF774
:103CE00065FE012201210C48FFF7B7FE1D208DF86B
:103CF000000000208DF8010002208DF80200012054
:103D00008DF8030000A8FFF79BF901210248FFF797
:103D100096FE05B030BD00000004004080B50020D4
:103D200000211548FFF735F95FF48030FFF74EF9B1
:103D30001148FFF748F9D0F10F000F200F49086034
:103D400001210D48FFF725F901BD80B54FF4005062
:103D5000FFF744F9002801D000F001F801BD80B55B
:103D60004FF48050FFF732F900210248FFF711F9B4
:103D700001BD000044000240580002405C000240C7
:103D800080B5FEF703FF0020FEF730FF102000F0A3
:103D90002CF8022000F01EF80020FEF76DFF002036
:103DA000FEF77CFF0020FEF770FF5FF4E0110020BB
:103DB000FEF746FF0120FEF74DFF3920FFF708F818
:103DC0000028FAD00220FEF749FFFEF750FF08282E
:103DD000FBD101BD0021DFF83410096811F0380172
:103DE0000143DFF8280001607047DFF82010096800
:103DF00031F01001DFF814201160DFF810100968AD
:103E00000843DFF8081008607047000000200240F7
:103E10004552524F523A2067697A50726F746F63FD
:103E20006F6C53756D202C20627566206973206558
:103E30006D707479206F72206C656E206572726F80
:103E400072202564200A000067697A50726F746FCF
:103E5000636F6C4765744F6E655061636B6574206A
:103E60004572726F72202C20496C6C6567616C2002
:103E7000506172616D0A000067697A50726F746FE9
:103E8000636F6C476574446576696365496E666FF8
:103E9000204572726F72202C20496C6C6567616CD2
:103EA00020506172616D0A0067697A50726F746F99
:103EB000636F6C49737375656450726F6365737378
:103EC000204572726F72202C20496C6C6567616CA2
:103ED00020506172616D0A004552524F523A20677C
:103EE000697A50726F746F636F6C48656164496E74
:103EF0006974206865616420697320656D707479E8
:103F0000200A00004552524F523A2067697A507297
:103F10006F746F636F6C436F6D6D6F6E41636B2079
:103F20006461746120697320656D707479200A0082
:103F300067697A50726F746F636F6C4572726F72DB
:103F4000436D64204572726F72202C20496C6C6541
:103F500067616C20506172616D0A000080B5FFF7E7
:103F60000FFFFFF758FCFFF7B8F9FEF715FDFFF755
:103F7000A1FE0220FEF71EF90248FEF7C7FCFFF77C
:103F8000ADFC01BD3841000867697A5265706F72F7
:103F90007444617461204572726F72202C20496CE8
:103FA0006C6567616C20506172616D0A00000000F1
:103FB00010B5074979441831064C7C44163404E0A6
:103FC0000A68081D511888470146A142F8D110BD62
:103FD0002C0000005400000033353934656464302F
:103FE0003438376434363365383864636165613733
:103FF00063393565343166620000000077D2FFFF17
:10400000B00D00005401002000000000E3FAFFFFA3
:104010000200000002000000D00200004400000086
:1040200000000020540100004552524F523A2075C2
:10403000617274207772697465206572726F722084
:104040002564200A000000004552524F523A204495
:104050004D41207772697465206572726F722025F8
:1040600064200A004552524F523A20646D61207715
:1040700072697465206572726F72202564200A006F
:104080004552524F523A20636865636B2073756DD9
:10409000206572726F72210A0000000000F00BF8B8
:1040A000002801D0FFF784FF0020C046C046FFF77C
:1040B00055FF00F002F80120704700F001B8000041
:1040C00007463846FFF76EFDFBE700004552524FAA
:1040D000523A206461746120697320656D7074794F
:1040E000200A00004552524F523A204366674D6FF6
:1040F0006465206572726F72210A0000496E666FF6
:104100003A2036303053207265706F7274206461CB
:1041100074610A0038B504460D46284600F006F8DA
:10412000A84218BF0024204632BD00000149FFF715
:10413000DCB800BFFC0000204D435520496E697477
:104140002053756363657373200A000067657420EC
:104150006F6E65206261636B7061636B0A000000C3
:104160004D435520746F20574946493A00000000DE
:10417000686561642D3E6C656E3D25640A00000033
:104180005749464920746F204D43553A00000000BE
:1041900001488047014800476D3600080D4200087D
:1041A00073756D206572726F723A00003030303076
:1041B00030303034000000003030303030303032B9
:1041C0000000000030333031303130310000000069
:1041D000303330313031303000000000636D643DE9
:1041E000307830310A000000636D643D3078303340
:1041F0000A000000636D643D307830370A0000002B
:10420000636D643D307830640A000000C046C046EB
:10421000C046C046FFF742FFFFF7CEBCFFF7CDBC5C
:10422000FFF7CCBCFFF7CBBCFFF7CABCFFF7C9BC9C
:10423000FFF7C8BCFFF7C7BCFFF7C6BCFFF7FEBF60
:10424000FFF7FEBFFFF7FEBFFFF7FEBCFFF7FEBFA5
:10425000FFF7FEBFFFF7FEBFFFF7FEBFFFF7FEBF92
:10426000FFF7FEBFFFF7FEBFFFF7FEBFFFF7FEBF82
:10427000FFF7FEBFFFF769BDFFF750BDFEF718BCA3
:10428000FEF72DBCFFF7FEBFFFF7FEBFFFF7FEBF37
:10429000FFF7FEBFFFF7FEBFFFF7FEBFFFF7FEBF52
:1042A000FFF7FEBFFFF7FEBFFFF7FEBFFFF7FEBF42
:1042B000FFF7F2BCFFF7FEBFFFF7FEBFFFF7FEBF41
:1042C000FFF7FEBFFFF7FEBFFFF7FEBFFFF7FEBF22
:1042D000FFF77EBCFFF7FEBFFFF796BCFFF7FEBF00
:1042E000FFF7FEBFFFF7FEBFE400F8FFDC00FAFFB8
:1042F0008100D1001F020401012C0E00207C0E0061
:10430000202C0E00202C0E00202C0E002039010045
:104310002020010020DC0013010203040102030439
:0C432000060708090204060800512502E7
:040000050800420DA0
:00000001FF
